{
  "contractName": "Election",
  "abi": [
    {
      "inputs": [],
      "payable": false,
      "stateMutability": "nonpayable",
      "type": "constructor"
    },
    {
      "constant": true,
      "inputs": [],
      "name": "admin",
      "outputs": [
        {
          "internalType": "address",
          "name": "",
          "type": "address"
        }
      ],
      "payable": false,
      "stateMutability": "view",
      "type": "function"
    },
    {
      "constant": true,
      "inputs": [
        {
          "internalType": "uint256",
          "name": "",
          "type": "uint256"
        }
      ],
      "name": "candidates",
      "outputs": [
        {
          "internalType": "uint256",
          "name": "id",
          "type": "uint256"
        },
        {
          "internalType": "string",
          "name": "name",
          "type": "string"
        },
        {
          "internalType": "uint256",
          "name": "voteCount",
          "type": "uint256"
        }
      ],
      "payable": false,
      "stateMutability": "view",
      "type": "function"
    },
    {
      "constant": true,
      "inputs": [],
      "name": "candidatesCount",
      "outputs": [
        {
          "internalType": "uint256",
          "name": "",
          "type": "uint256"
        }
      ],
      "payable": false,
      "stateMutability": "view",
      "type": "function"
    },
    {
      "constant": true,
      "inputs": [],
      "name": "ended",
      "outputs": [
        {
          "internalType": "bool",
          "name": "",
          "type": "bool"
        }
      ],
      "payable": false,
      "stateMutability": "view",
      "type": "function"
    },
    {
      "constant": true,
      "inputs": [],
      "name": "started",
      "outputs": [
        {
          "internalType": "bool",
          "name": "",
          "type": "bool"
        }
      ],
      "payable": false,
      "stateMutability": "view",
      "type": "function"
    },
    {
      "constant": true,
      "inputs": [
        {
          "internalType": "address",
          "name": "",
          "type": "address"
        }
      ],
      "name": "voters",
      "outputs": [
        {
          "internalType": "bool",
          "name": "",
          "type": "bool"
        }
      ],
      "payable": false,
      "stateMutability": "view",
      "type": "function"
    },
    {
      "constant": false,
      "inputs": [
        {
          "internalType": "string",
          "name": "_name",
          "type": "string"
        }
      ],
      "name": "addCandidate",
      "outputs": [],
      "payable": false,
      "stateMutability": "nonpayable",
      "type": "function"
    },
    {
      "constant": false,
      "inputs": [
        {
          "internalType": "uint256",
          "name": "_candidateId",
          "type": "uint256"
        }
      ],
      "name": "vote",
      "outputs": [],
      "payable": false,
      "stateMutability": "nonpayable",
      "type": "function"
    },
    {
      "constant": false,
      "inputs": [],
      "name": "start",
      "outputs": [],
      "payable": false,
      "stateMutability": "nonpayable",
      "type": "function"
    },
    {
      "constant": false,
      "inputs": [],
      "name": "end",
      "outputs": [],
      "payable": false,
      "stateMutability": "nonpayable",
      "type": "function"
    }
  ],
  "bytecode": "0x608060405260008060006101000a81548160ff02191690831515021790555060008060016101000a81548160ff02191690831515021790555034801561004457600080fd5b5033600060026101000a81548173ffffffffffffffffffffffffffffffffffffffff021916908373ffffffffffffffffffffffffffffffffffffffff16021790555060008090505b600460008081526020019081526020016000205481101561013f576000600160006005600085815260200190815260200160002060009054906101000a900473ffffffffffffffffffffffffffffffffffffffff1673ffffffffffffffffffffffffffffffffffffffff1673ffffffffffffffffffffffffffffffffffffffff16815260200190815260200160002060006101000a81548160ff021916908315150217905550808060010191505061008c565b50610b438061014f6000396000f3fe608060405234801561001057600080fd5b506004361061009e5760003560e01c8063462e91ec11610066578063462e91ec146101e8578063a3ec138d146102a3578063be9a6555146102ff578063efbe1c1c14610309578063f851a440146103135761009e565b80630121b93f146100a357806312fa6feb146100d15780631f2698ab146100f35780632d35a8a2146101155780633477ee2e14610133575b600080fd5b6100cf600480360360208110156100b957600080fd5b810190808035906020019092919050505061035d565b005b6100d96105be565b604051808215151515815260200191505060405180910390f35b6100fb6105d1565b604051808215151515815260200191505060405180910390f35b61011d6105e3565b6040518082815260200191505060405180910390f35b61015f6004803603602081101561014957600080fd5b81019080803590602001909291905050506105e9565b6040518084815260200180602001838152602001828103825284818151815260200191508051906020019080838360005b838110156101ab578082015181840152602081019050610190565b50505050905090810190601f1680156101d85780820380516001836020036101000a031916815260200191505b5094505050505060405180910390f35b6102a1600480360360208110156101fe57600080fd5b810190808035906020019064010000000081111561021b57600080fd5b82018360208201111561022d57600080fd5b8035906020019184600183028401116401000000008311171561024f57600080fd5b91908080601f016020809104026020016040519081016040528093929190818152602001838380828437600081840152601f19601f8201169050808301925050505050505091929192905050506106ab565b005b6102e5600480360360208110156102b957600080fd5b81019080803573ffffffffffffffffffffffffffffffffffffffff1690602001909291905050506108cf565b604051808215151515815260200191505060405180910390f35b6103076108ef565b005b610311610965565b005b61031b6109fb565b604051808273ffffffffffffffffffffffffffffffffffffffff1673ffffffffffffffffffffffffffffffffffffffff16815260200191505060405180910390f35b600160003373ffffffffffffffffffffffffffffffffffffffff1673ffffffffffffffffffffffffffffffffffffffff16815260200190815260200160002060009054906101000a900460ff16156103b457600080fd5b6000809054906101000a900460ff16610418576040517f08c379a0000000000000000000000000000000000000000000000000000000008152600401808060200182810382526021815260200180610aee6021913960400191505060405180910390fd5b600060019054906101000a900460ff161561049b576040517f08c379a00000000000000000000000000000000000000000000000000000000081526004018080602001828103825260178152602001807f456c656374696f6e20686173206265656e20656e64656400000000000000000081525060200191505060405180910390fd5b6000811180156104ad57506003548111155b6104b657600080fd5b60018060003373ffffffffffffffffffffffffffffffffffffffff1673ffffffffffffffffffffffffffffffffffffffff16815260200190815260200160002060006101000a81548160ff021916908315150217905550600460008081526020019081526020016000206000815480929190600101919050555033600560006004600080815260200190815260200160002054815260200190815260200160002060006101000a81548173ffffffffffffffffffffffffffffffffffffffff021916908373ffffffffffffffffffffffffffffffffffffffff160217905550600260008281526020019081526020016000206002016000815480929190600101919050555050565b600060019054906101000a900460ff1681565b6000809054906101000a900460ff1681565b60035481565b6002602052806000526040600020600091509050806000015490806001018054600181600116156101000203166002900480601f01602080910402602001604051908101604052809291908181526020018280546001816001161561010002031660029004801561069b5780601f106106705761010080835404028352916020019161069b565b820191906000526020600020905b81548152906001019060200180831161067e57829003601f168201915b5050505050908060020154905083565b600060029054906101000a900473ffffffffffffffffffffffffffffffffffffffff1673ffffffffffffffffffffffffffffffffffffffff163373ffffffffffffffffffffffffffffffffffffffff1614801561071a5750600015156000809054906101000a900460ff161515145b1561079d5760036000815480929190600101919050555060405180606001604052806003548152602001828152602001600081525060026000600354815260200190815260200160002060008201518160000155602082015181600101908051906020019061078a929190610a21565b50604082015181600201559050506108cc565b600060029054906101000a900473ffffffffffffffffffffffffffffffffffffffff1673ffffffffffffffffffffffffffffffffffffffff163373ffffffffffffffffffffffffffffffffffffffff1614610860576040517f08c379a00000000000000000000000000000000000000000000000000000000081526004018080602001828103825260168152602001807f53656e646572206e6f7420617574686f72697a65642e0000000000000000000081525060200191505060405180910390fd5b600015156000809054906101000a900460ff161515146108cb576040517f08c379a0000000000000000000000000000000000000000000000000000000008152600401808060200182810382526027815260200180610ac76027913960400191505060405180910390fd5b5b50565b60016020528060005260406000206000915054906101000a900460ff1681565b600060029054906101000a900473ffffffffffffffffffffffffffffffffffffffff1673ffffffffffffffffffffffffffffffffffffffff163373ffffffffffffffffffffffffffffffffffffffff161461094957600080fd5b60016000806101000a81548160ff021916908315150217905550565b600060029054906101000a900473ffffffffffffffffffffffffffffffffffffffff1673ffffffffffffffffffffffffffffffffffffffff163373ffffffffffffffffffffffffffffffffffffffff16146109bf57600080fd5b600115156000809054906101000a900460ff161515146109de57600080fd5b6001600060016101000a81548160ff021916908315150217905550565b600060029054906101000a900473ffffffffffffffffffffffffffffffffffffffff1681565b828054600181600116156101000203166002900490600052602060002090601f016020900481019282601f10610a6257805160ff1916838001178555610a90565b82800160010185558215610a90579182015b82811115610a8f578251825591602001919060010190610a74565b5b509050610a9d9190610aa1565b5090565b610ac391905b80821115610abf576000816000905550600101610aa7565b5090565b9056fe43616e2774206164642043616e64696461746520696e206265747765656e20456c656374696f6e456c656374696f6e20686173206e6f7420796574206265656e2073746172746564a265627a7a723158203a744b3991ba07f24c6109e4c23460a3a65dbd4896e8d1c5701b6c6a309cb69a64736f6c63430005100032",
  "source": "pragma solidity >=0.4.21 <0.7.0;\r\n\r\n// contract Election {\r\n//     // Store Candidate\r\n//     // Read Candidate\r\n//     // Constructor\r\n//     string public candidate;\r\n//     constructor() public{\r\n//         candidate = \"Candidate 1\";\r\n//     }\r\n// }\r\n\r\ncontract Election {\r\n\r\n    // string public candidate;\r\n    // Model a Candidate\r\n    struct Candidate {\r\n        uint id;\r\n        string name;\r\n        uint voteCount;\r\n    }\r\n    bool public started=false;\r\n    bool public ended=false;\r\n\taddress public admin;\r\n    // Store account that have voted \r\n    mapping(address => bool) public voters;\r\n    // Store Candidate\r\n    // Fetch Candidate\r\n    mapping(uint => Candidate) public candidates;\r\n    // Store Candidates Count\r\n    uint public candidatesCount;\r\n    //Store Voters Count\r\n    mapping(uint => uint) votersCount;\r\n    mapping(uint =>address) voter;\r\n    constructor () public {\r\n\t\tadmin=msg.sender;\r\n        for(uint i=0;i<votersCount[0];i++){\r\n        voters[voter[i]]=false;\r\n        }\r\n    }\r\n\r\n    function addCandidate (string memory _name) public {\r\n\t\tif(msg.sender==admin && started==false){\r\n\t\t\tcandidatesCount ++;\r\n\t\t\tcandidates[candidatesCount] = Candidate(candidatesCount, _name, 0);\r\n\t\t}\r\n\t\telse{\r\n\t\trequire(\r\n\t\t\tmsg.sender == admin,\r\n\t\t\t\"Sender not authorized.\"\r\n\t\t);\r\n        require(\r\n            started==false,\r\n            \"Can't add Candidate in between Election\"\r\n        );\r\n\t\t}\t\t\r\n    }\r\n    function vote (uint _candidateId) public  {\r\n        // require that they haven't voted before\r\n        require(!voters[msg.sender]);\r\n        //Election is started\r\n        require(started,\"Election has not yet been started\");\r\n        require(!ended,\"Election has been ended\");\r\n        // require a valid candidate\r\n        require(_candidateId > 0 && _candidateId <= candidatesCount);\r\n\r\n        // record that voter has voted\r\n        voters[msg.sender] = true;\r\n        votersCount[0] ++;\r\n        voter[votersCount[0]]=msg.sender;\r\n        // update candidate vote Count\r\n        candidates[_candidateId].voteCount ++;\r\n    }\r\n    function start() public {\r\n        require(msg.sender==admin);\r\n        started=true;\r\n    }\r\n    function end() public{\r\n        require(msg.sender==admin);\r\n        require(started==true);\r\n        ended=true;\r\n    }\r\n}",
  "sourcePath": "C:\\Users\\babli\\Desktop\\election\\contracts\\Election.sol",
  "compiler": {
    "name": "solc",
    "version": "0.5.16+commit.9c3226ce.Emscripten.clang"
  },
  "schemaVersion": "3.0.23",
  "updatedAt": "2020-04-21T10:25:57.071Z",
  "networkType": "ethereum",
  "devdoc": {
    "methods": {}
  },
  "userdoc": {
    "methods": {}
  }
}